:100000000C942A000C943C000C943C000C943C0092
:100010000C943C000C943C000C943C000C943C0070
:100020000C943C000C943C000C943C000C943C0060
:100030000C943C000C943C000C943C000C943C0050
:100040000C9478000C943C000C943C000C943C0004
:100050000C943C0011241FBECFE5D8E0DEBFCDBF1D
:1000600020E0A0E6B0E001C01D92AB37B207E1F797
:100070000E943B020C944C020C940000F89488E11E
:100080009FE00FB6F894A89581BD0FBE91BD0E9468
:10009000330160E081E00E94050281E00E94560089
:1000A0000E9401020E9420017894089580936000CC
:1000B0003E9A3F98389839983A98379A882311F0A1
:1000C000369A339A109262001092610008958091DE
:1000D0006000882339F0339A369A809161009091BC
:1000E00062000895369A3699FECF84B195B108958D
:1000F0008F939F9384B195B1909362008093610038
:100100009F918F911895CF93C82F07C08C2F0E9475
:10011000500191B1987F983149F00E94390191B115
:10012000987F983099F380E0CF91089581E0CF9146
:1001300008951F93CF93DF93182FD62F80EA0E9444
:100140008300C82F811105C08C2FDF91CF911F91A3
:10015000089580E00E945001812F0E9450018D2F50
:100160000E9450010E943F018FE79BEB0197F1F73E
:1001700000C000008C2FDF91CF911F910895CF9385
:10018000C82F80EA0E948300811104C0C0E08C2F38
:10019000CF91089580E00E9450018C2F0E94500161
:1001A0000E94390181EA0E94500180E00E944501CD
:1001B000C82F0E943F018C2FCF9108958093630038
:1001C00008950F931F93CF93DF93809164009091D4
:1001D00065001816190664F40197909365008093E2
:1001E0006400C0E08C2FDF91CF911F910F91089593
:1001F00084E690E09093650080936400C091630072
:10020000CC23B9F007E710E0D02FD095F801619129
:100210008F018D2F8E0F0E949900F0E00B371F0782
:10022000A9F7109263008C2FDF91CF911F910F914E
:100230000895C1E08C2FDF91CF911F910F91089508
:100240000F931F93CF9307E710E0C0E08C2F0E941D
:10025000BF00F80181938F01CF5FC430B9F7CF9110
:100260001F910F91089581B18C7F81B988E480B985
:10027000089584EA86BF06B607FEFDCF089584E997
:1002800086BF06B604FCFDCF0895811107C084E83F
:1002900086BF06B607FEFDCF83B1089584ECF8CF84
:1002A00083B984E886BF06B607FEFDCF089581E0D6
:1002B00080BD8FE989B988E98AB986EA80BD089549
:1002C0005F9BFECF8CB108955D9BFECF8CB90895E6
:1002D0009C01181619064CF48FE99FE00197F1F77D
:1002E00000C0000021503109B9F70895FC01DC017C
:1002F0000D900020E9F7AD014150510921E030E0B7
:1003000070E060E0E417F50751F09191913349F006
:100310009033C1F7220F331FE417F507B1F7CB0174
:100320000895620F731F220F331FECCF9C01E6E686
:10033000F0E081E1DF011D928A95E9F745E750E0A1
:1003400070E361E306C060833196B0E0E637FB07F7
:1003500089F0CA018E1B9F0BD90102C0B595A795E4
:100360008A95E2F7A0FDEFCF70833196B0E0E637D3
:10037000FB0779F786E690E00895282F9DEC899F8A
:10038000912D1124969596959695892F8295807F2B
:10039000392F330F330F930F990F291B820F0895B5
:1003A000829590E09C013595279535952795237387
:1003B000880F991F880F991F8C7C282B30E0C9016A
:1003C000959587958575220F331F2A7A822B08957C
:1003D000CF93DF93D82FC62F0E943901DD2339F048
:1003E0008C2F0E945001DF91CF910C943F0180E748
:1003F0000E9450018C2F0E945001DF91CF910C94EC
:100400003F0160E080E00C94E801882329F0BB9A6A
:1004100083B7826783BF1CBE662321F08F9A8DE766
:1004200085BD13BC0895882331F08CB78F3F19F038
:100430008CB78F5F8CBF662331F083B58F3F19F087
:1004400083B58F5F83BD0895882319F08CB7811120
:1004500009C0662331F083B5882319F083B5815034
:1004600083BD08958CB781508CBFF3CF81114CBFF1
:10047000611143BD08950E943E000E94E100811178
:10048000FCCF8FE59DE60197F1F700C000000E94C8
:0C049000E1008111F2CFF5CFF894FFCF0E
:00000001FF
